{
  "address": "0x5E44Bc651143224Dd464A966390E8Fb07509461b",
  "abi": [
    {
      "inputs": [
        {
          "internalType": "contract ENS",
          "name": "ensAddr",
          "type": "address"
        },
        {
          "internalType": "contract NameResolver",
          "name": "resolverAddr",
          "type": "address"
        }
      ],
      "stateMutability": "nonpayable",
      "type": "constructor"
    },
    {
      "anonymous": false,
      "inputs": [
        {
          "indexed": true,
          "internalType": "address",
          "name": "controller",
          "type": "address"
        },
        {
          "indexed": false,
          "internalType": "bool",
          "name": "enabled",
          "type": "bool"
        }
      ],
      "name": "ControllerChanged",
      "type": "event"
    },
    {
      "anonymous": false,
      "inputs": [
        {
          "indexed": true,
          "internalType": "address",
          "name": "previousOwner",
          "type": "address"
        },
        {
          "indexed": true,
          "internalType": "address",
          "name": "newOwner",
          "type": "address"
        }
      ],
      "name": "OwnershipTransferred",
      "type": "event"
    },
    {
      "anonymous": false,
      "inputs": [
        {
          "indexed": true,
          "internalType": "address",
          "name": "addr",
          "type": "address"
        },
        {
          "indexed": true,
          "internalType": "bytes32",
          "name": "node",
          "type": "bytes32"
        }
      ],
      "name": "ReverseClaimed",
      "type": "event"
    },
    {
      "inputs": [
        {
          "internalType": "address",
          "name": "owner",
          "type": "address"
        }
      ],
      "name": "claim",
      "outputs": [
        {
          "internalType": "bytes32",
          "name": "",
          "type": "bytes32"
        }
      ],
      "stateMutability": "nonpayable",
      "type": "function"
    },
    {
      "inputs": [
        {
          "internalType": "address",
          "name": "addr",
          "type": "address"
        },
        {
          "internalType": "address",
          "name": "owner",
          "type": "address"
        }
      ],
      "name": "claimForAddr",
      "outputs": [
        {
          "internalType": "bytes32",
          "name": "",
          "type": "bytes32"
        }
      ],
      "stateMutability": "nonpayable",
      "type": "function"
    },
    {
      "inputs": [
        {
          "internalType": "address",
          "name": "owner",
          "type": "address"
        },
        {
          "internalType": "address",
          "name": "resolver",
          "type": "address"
        }
      ],
      "name": "claimWithResolver",
      "outputs": [
        {
          "internalType": "bytes32",
          "name": "",
          "type": "bytes32"
        }
      ],
      "stateMutability": "nonpayable",
      "type": "function"
    },
    {
      "inputs": [
        {
          "internalType": "address",
          "name": "addr",
          "type": "address"
        },
        {
          "internalType": "address",
          "name": "owner",
          "type": "address"
        },
        {
          "internalType": "address",
          "name": "resolver",
          "type": "address"
        }
      ],
      "name": "claimWithResolverForAddr",
      "outputs": [
        {
          "internalType": "bytes32",
          "name": "",
          "type": "bytes32"
        }
      ],
      "stateMutability": "nonpayable",
      "type": "function"
    },
    {
      "inputs": [
        {
          "internalType": "address",
          "name": "",
          "type": "address"
        }
      ],
      "name": "controllers",
      "outputs": [
        {
          "internalType": "bool",
          "name": "",
          "type": "bool"
        }
      ],
      "stateMutability": "view",
      "type": "function"
    },
    {
      "inputs": [],
      "name": "defaultResolver",
      "outputs": [
        {
          "internalType": "contract NameResolver",
          "name": "",
          "type": "address"
        }
      ],
      "stateMutability": "view",
      "type": "function"
    },
    {
      "inputs": [],
      "name": "ens",
      "outputs": [
        {
          "internalType": "contract ENS",
          "name": "",
          "type": "address"
        }
      ],
      "stateMutability": "view",
      "type": "function"
    },
    {
      "inputs": [
        {
          "internalType": "address",
          "name": "addr",
          "type": "address"
        }
      ],
      "name": "node",
      "outputs": [
        {
          "internalType": "bytes32",
          "name": "",
          "type": "bytes32"
        }
      ],
      "stateMutability": "pure",
      "type": "function"
    },
    {
      "inputs": [],
      "name": "owner",
      "outputs": [
        {
          "internalType": "address",
          "name": "",
          "type": "address"
        }
      ],
      "stateMutability": "view",
      "type": "function"
    },
    {
      "inputs": [],
      "name": "renounceOwnership",
      "outputs": [],
      "stateMutability": "nonpayable",
      "type": "function"
    },
    {
      "inputs": [
        {
          "internalType": "address",
          "name": "controller",
          "type": "address"
        },
        {
          "internalType": "bool",
          "name": "enabled",
          "type": "bool"
        }
      ],
      "name": "setController",
      "outputs": [],
      "stateMutability": "nonpayable",
      "type": "function"
    },
    {
      "inputs": [
        {
          "internalType": "string",
          "name": "name",
          "type": "string"
        }
      ],
      "name": "setName",
      "outputs": [
        {
          "internalType": "bytes32",
          "name": "",
          "type": "bytes32"
        }
      ],
      "stateMutability": "nonpayable",
      "type": "function"
    },
    {
      "inputs": [
        {
          "internalType": "address",
          "name": "addr",
          "type": "address"
        },
        {
          "internalType": "address",
          "name": "owner",
          "type": "address"
        },
        {
          "internalType": "string",
          "name": "name",
          "type": "string"
        }
      ],
      "name": "setNameForAddr",
      "outputs": [
        {
          "internalType": "bytes32",
          "name": "",
          "type": "bytes32"
        }
      ],
      "stateMutability": "nonpayable",
      "type": "function"
    },
    {
      "inputs": [
        {
          "internalType": "address",
          "name": "newOwner",
          "type": "address"
        }
      ],
      "name": "transferOwnership",
      "outputs": [],
      "stateMutability": "nonpayable",
      "type": "function"
    }
  ],
  "transactionHash": "0x24f1aafbdb52bc7f5db71068fd6760f054ae602334778d1e84efc33e90dee695",
  "args": [
    "0x8971dA26cC9020f6CbE8f2e58C9E7789a9Be37c7",
    "0x3F89AF86f7B81A17241f5Ef84ab554eCd0889aE3"
  ],
  "numDeployments": 1,
  "solcInputHash": "01e3774814c3bb2a6d14202e1bda3958",
  "bytecode": "0x60806040523480156200001157600080fd5b506040516200114f3803806200114f8339810160408190526200003491620001e4565b6200003f336200017b565b600280546001600160a01b038481166001600160a01b0319928316811790935560038054918516919092161790556040516302571be360e01b81527f91d1777781884d03a6757a803996e38de2a42967fb37eeaca72729271025a9e26004820152600091906302571be390602401602060405180830381865afa158015620000cb573d6000803e3d6000fd5b505050506040513d601f19601f82011682018060405250810190620000f1919062000223565b90506001600160a01b038116156200017257604051630f41a04d60e11b81523360048201526001600160a01b03821690631e83409a906024016020604051808303816000875af11580156200014a573d6000803e3d6000fd5b505050506040513d601f19601f820116820180604052508101906200017091906200024a565b505b50505062000264565b600080546001600160a01b038381166001600160a01b0319831681178455604051919092169283917f8be0079c531659141344cd1fd0a4f28419497f9722a3daafe3b4186f6b6457e09190a35050565b6001600160a01b0381168114620001e157600080fd5b50565b60008060408385031215620001f857600080fd5b82516200020581620001cb565b60208401519092506200021881620001cb565b809150509250929050565b6000602082840312156200023657600080fd5b81516200024381620001cb565b9392505050565b6000602082840312156200025d57600080fd5b5051919050565b610edb80620002746000396000f3fe608060405234801561001057600080fd5b50600436106100ea5760003560e01c80638d9522b81161008c578063c47f002711610066578063c47f0027146101cd578063da8c229e146101e0578063e0dba60f14610213578063f2fde38b1461022657600080fd5b80638d9522b8146101965780638da5cb5b146101a9578063bffbe61c146101ba57600080fd5b80633f15457f116100c85780633f15457f1461013b5780634709bf4b14610166578063715018a614610179578063828eab0e1461018357600080fd5b80630ccc4a7f146100ef5780630f5a5466146101155780631e83409a14610128575b600080fd5b6101026100fd366004610b56565b610239565b6040519081526020015b60405180910390f35b610102610123366004610ba1565b610324565b610102610136366004610bda565b610338565b60025461014e906001600160a01b031681565b6040516001600160a01b03909116815260200161010c565b610102610174366004610ba1565b61034c565b61018161042e565b005b60035461014e906001600160a01b031681565b6101026101a4366004610c9a565b610442565b6000546001600160a01b031661014e565b6101026101c8366004610bda565b61063c565b6101026101db366004610cfc565b610685565b6102036101ee366004610bda565b60016020526000908152604090205460ff1681565b604051901515815260200161010c565b610181610221366004610d3f565b61070f565b610181610234366004610bda565b610776565b6000836001600160a01b03811633148061026257503360009081526001602052604090205460ff165b806102dc575060025460405163e985e9c560e01b81526001600160a01b0383811660048301523360248301529091169063e985e9c590604401602060405180830381865afa1580156102b8573d6000803e3d6000fd5b505050506040513d601f19601f820116820180604052508101906102dc9190610d6d565b806102eb57506102eb816107ef565b6103105760405162461bcd60e51b815260040161030790610d8a565b60405180910390fd5b61031b858585610868565b95945050505050565b6000610331338484610868565b9392505050565b600061034633836000610868565b92915050565b6000826001600160a01b03811633148061037557503360009081526001602052604090205460ff165b806103ef575060025460405163e985e9c560e01b81526001600160a01b0383811660048301523360248301529091169063e985e9c590604401602060405180830381865afa1580156103cb573d6000803e3d6000fd5b505050506040513d601f19601f820116820180604052508101906103ef9190610d6d565b806103fe57506103fe816107ef565b61041a5760405162461bcd60e51b815260040161030790610d8a565b61042684846000610868565b949350505050565b610436610a31565b6104406000610a8b565b565b6000836001600160a01b03811633148061046b57503360009081526001602052604090205460ff165b806104e5575060025460405163e985e9c560e01b81526001600160a01b0383811660048301523360248301529091169063e985e9c590604401602060405180830381865afa1580156104c1573d6000803e3d6000fd5b505050506040513d601f19601f820116820180604052508101906104e59190610d6d565b806104f457506104f4816107ef565b6105105760405162461bcd60e51b815260040161030790610d8a565b60035460009061052c90879030906001600160a01b0316610868565b600354604051637737221360e01b81529192506001600160a01b03169063773722139061055f9084908890600401610df9565b600060405180830381600087803b15801561057957600080fd5b505af115801561058d573d6000803e3d6000fd5b50506002546001600160a01b031691506306ab59239050600080516020610e868339815191526105bc89610adb565b6040516001600160e01b031960e085901b168152600481019290925260248201526001600160a01b03881660448201526064016020604051808303816000875af115801561060e573d6000803e3d6000fd5b505050506040513d601f19601f820116820180604052508101906106329190610e4f565b5095945050505050565b6000600080516020610e8683398151915261065683610adb565b604080516020810193909352820152606001604051602081830303815290604052805190602001209050919050565b60035460009081906106a390339030906001600160a01b0316610868565b600354604051637737221360e01b81529192506001600160a01b0316906377372213906106d69084908790600401610df9565b600060405180830381600087803b1580156106f057600080fd5b505af1158015610704573d6000803e3d6000fd5b509295945050505050565b610717610a31565b6001600160a01b038216600081815260016020908152604091829020805460ff191685151590811790915591519182527f4c97694570a07277810af7e5669ffd5f6a2d6b74b6e9a274b8b870fd5114cf87910160405180910390a25050565b61077e610a31565b6001600160a01b0381166107e35760405162461bcd60e51b815260206004820152602660248201527f4f776e61626c653a206e6577206f776e657220697320746865207a65726f206160448201526564647265737360d01b6064820152608401610307565b6107ec81610a8b565b50565b6000816001600160a01b0316638da5cb5b6040518163ffffffff1660e01b8152600401602060405180830381865afa92505050801561084b575060408051601f3d908101601f1916820190925261084891810190610e68565b60015b61085757506000919050565b6001600160a01b0316331492915050565b60008061087485610adb565b60408051600080516020610e86833981519152602082015290810182905290915060009060600160408051808303601f19018152908290528051602090910120600254630178b8bf60e01b8352600483018290529092506000916001600160a01b0390911690630178b8bf90602401602060405180830381865afa158015610900573d6000803e3d6000fd5b505050506040513d601f19601f820116820180604052508101906109249190610e68565b905060006001600160a01b038616158015906109525750816001600160a01b0316866001600160a01b031614155b90506000816109615782610963565b865b6002546040516305ef2c7f60e41b8152600080516020610e868339815191526004820152602481018890526001600160a01b038b81166044830152808416606483015260006084830152929350911690635ef2c7f09060a401600060405180830381600087803b1580156109d657600080fd5b505af11580156109ea573d6000803e3d6000fd5b50506040518692506001600160a01b038c1691507f6ada868dd3058cf77a48a74489fd7963688e5464b2b0fa957ace976243270e9290600090a35091979650505050505050565b6000546001600160a01b031633146104405760405162461bcd60e51b815260206004820181905260248201527f4f776e61626c653a2063616c6c6572206973206e6f7420746865206f776e65726044820152606401610307565b600080546001600160a01b038381166001600160a01b0319831681178455604051919092169283917f8be0079c531659141344cd1fd0a4f28419497f9722a3daafe3b4186f6b6457e09190a35050565b600060285b8015610b3557600019016f181899199a1a9b1b9c1cb0b131b232b360811b600f84161a8153601090920491600019016f181899199a1a9b1b9c1cb0b131b232b360811b600f84161a8153601083049250610ae0565b50506028600020919050565b6001600160a01b03811681146107ec57600080fd5b600080600060608486031215610b6b57600080fd5b8335610b7681610b41565b92506020840135610b8681610b41565b91506040840135610b9681610b41565b809150509250925092565b60008060408385031215610bb457600080fd5b8235610bbf81610b41565b91506020830135610bcf81610b41565b809150509250929050565b600060208284031215610bec57600080fd5b813561033181610b41565b634e487b7160e01b600052604160045260246000fd5b600082601f830112610c1e57600080fd5b813567ffffffffffffffff80821115610c3957610c39610bf7565b604051601f8301601f19908116603f01168101908282118183101715610c6157610c61610bf7565b81604052838152866020858801011115610c7a57600080fd5b836020870160208301376000602085830101528094505050505092915050565b600080600060608486031215610caf57600080fd5b8335610cba81610b41565b92506020840135610cca81610b41565b9150604084013567ffffffffffffffff811115610ce657600080fd5b610cf286828701610c0d565b9150509250925092565b600060208284031215610d0e57600080fd5b813567ffffffffffffffff811115610d2557600080fd5b61042684828501610c0d565b80151581146107ec57600080fd5b60008060408385031215610d5257600080fd5b8235610d5d81610b41565b91506020830135610bcf81610d31565b600060208284031215610d7f57600080fd5b815161033181610d31565b60208082526049908201527f43616c6c6572206973206e6f74206120636f6e74726f6c6c6572206f7220617560408201527f74686f72697365642062792061646472657373206f722074686520616464726560608201526839b99034ba39b2b63360b91b608082015260a00190565b82815260006020604081840152835180604085015260005b81811015610e2d57858101830151858201606001528201610e11565b506000606082860101526060601f19601f830116850101925050509392505050565b600060208284031215610e6157600080fd5b5051919050565b600060208284031215610e7a57600080fd5b815161033181610b4156fe91d1777781884d03a6757a803996e38de2a42967fb37eeaca72729271025a9e2a2646970667358221220fbdb5357b27f638c36f69d2a5416aca4de5f56293726e207334c6fa0298e347864736f6c63430008120033",
  "devdoc": {
    "kind": "dev",
    "methods": {
      "claim(address)": {
        "details": "Transfers ownership of the reverse ENS record associated with the      calling account.",
        "params": {
          "owner": "The address to set as the owner of the reverse record in ENS."
        },
        "returns": {
          "_0": "The ENS node hash of the reverse record."
        }
      },
      "claimForAddr(address,address)": {
        "details": "Transfers ownership of the reverse ENS record associated with the      calling account.",
        "params": {
          "addr": "The reverse record to set",
          "owner": "The address to set as the owner of the reverse record in ENS."
        },
        "returns": {
          "_0": "The ENS node hash of the reverse record."
        }
      },
      "claimWithResolver(address,address)": {
        "details": "Transfers ownership of the reverse ENS record associated with the      calling account.",
        "params": {
          "owner": "The address to set as the owner of the reverse record in ENS.",
          "resolver": "The address of the resolver to set; 0 to leave unchanged."
        },
        "returns": {
          "_0": "The ENS node hash of the reverse record."
        }
      },
      "claimWithResolverForAddr(address,address,address)": {
        "details": "Transfers ownership of the reverse ENS record specified with the      address provided",
        "params": {
          "addr": "The reverse record to set",
          "owner": "The address to set as the owner of the reverse record in ENS.",
          "resolver": "The address of the resolver to set; 0 to leave unchanged."
        },
        "returns": {
          "_0": "The ENS node hash of the reverse record."
        }
      },
      "constructor": {
        "details": "Constructor",
        "params": {
          "ensAddr": "The address of the ENS registry.",
          "resolverAddr": "The address of the default reverse resolver."
        }
      },
      "node(address)": {
        "details": "Returns the node hash for a given account's reverse records.",
        "params": {
          "addr": "The address to hash"
        },
        "returns": {
          "_0": "The ENS node hash."
        }
      },
      "owner()": {
        "details": "Returns the address of the current owner."
      },
      "renounceOwnership()": {
        "details": "Leaves the contract without owner. It will not be possible to call `onlyOwner` functions. Can only be called by the current owner. NOTE: Renouncing ownership will leave the contract without an owner, thereby disabling any functionality that is only available to the owner."
      },
      "setName(string)": {
        "details": "Sets the `name()` record for the reverse ENS record associated with the calling account. First updates the resolver to the default reverse resolver if necessary.",
        "params": {
          "name": "The name to set for this address."
        },
        "returns": {
          "_0": "The ENS node hash of the reverse record."
        }
      },
      "setNameForAddr(address,address,string)": {
        "details": "Sets the `name()` record for the reverse ENS record associated with the account provided. First updates the resolver to the default reverse resolver if necessary. Only callable by controllers and authorised users",
        "params": {
          "addr": "The reverse record to set",
          "name": "The name to set for this address.",
          "owner": "The owner of the reverse node"
        },
        "returns": {
          "_0": "The ENS node hash of the reverse record."
        }
      },
      "transferOwnership(address)": {
        "details": "Transfers ownership of the contract to a new account (`newOwner`). Can only be called by the current owner."
      }
    },
    "version": 1
  },
  "userdoc": {
    "kind": "user",
    "methods": {},
    "version": 1
  },
  "storageLayout": {
    "storage": [
      {
        "astId": 681,
        "contract": "@ensdomains/ens-contracts/contracts/registry/ReverseRegistrar.sol:ReverseRegistrar",
        "label": "_owner",
        "offset": 0,
        "slot": "0",
        "type": "t_address"
      },
      {
        "astId": 633,
        "contract": "@ensdomains/ens-contracts/contracts/registry/ReverseRegistrar.sol:ReverseRegistrar",
        "label": "controllers",
        "offset": 0,
        "slot": "1",
        "type": "t_mapping(t_address,t_bool)"
      },
      {
        "astId": 243,
        "contract": "@ensdomains/ens-contracts/contracts/registry/ReverseRegistrar.sol:ReverseRegistrar",
        "label": "ens",
        "offset": 0,
        "slot": "2",
        "type": "t_contract(ENS)136"
      },
      {
        "astId": 246,
        "contract": "@ensdomains/ens-contracts/contracts/registry/ReverseRegistrar.sol:ReverseRegistrar",
        "label": "defaultResolver",
        "offset": 0,
        "slot": "3",
        "type": "t_contract(NameResolver)230"
      }
    ],
    "types": {
      "t_address": {
        "encoding": "inplace",
        "label": "address",
        "numberOfBytes": "20"
      },
      "t_bool": {
        "encoding": "inplace",
        "label": "bool",
        "numberOfBytes": "1"
      },
      "t_contract(ENS)136": {
        "encoding": "inplace",
        "label": "contract ENS",
        "numberOfBytes": "20"
      },
      "t_contract(NameResolver)230": {
        "encoding": "inplace",
        "label": "contract NameResolver",
        "numberOfBytes": "20"
      },
      "t_mapping(t_address,t_bool)": {
        "encoding": "mapping",
        "key": "t_address",
        "label": "mapping(address => bool)",
        "numberOfBytes": "32",
        "value": "t_bool"
      }
    }
  }
}